{
  "contractName": "addProducts",
  "abi": [
    {
      "constant": true,
      "inputs": [
        {
          "name": "",
          "type": "uint256"
        }
      ],
      "name": "ProductList",
      "outputs": [
        {
          "name": "added_by",
          "type": "address"
        },
        {
          "name": "productId",
          "type": "uint256"
        },
        {
          "name": "ProductName",
          "type": "string"
        },
        {
          "name": "fat",
          "type": "uint256"
        },
        {
          "name": "calories",
          "type": "uint256"
        },
        {
          "name": "protein",
          "type": "uint256"
        },
        {
          "name": "carbohydrate",
          "type": "uint256"
        },
        {
          "name": "rate",
          "type": "uint256"
        },
        {
          "name": "quantity",
          "type": "uint256"
        },
        {
          "name": "status",
          "type": "uint256"
        }
      ],
      "payable": false,
      "stateMutability": "view",
      "type": "function"
    },
    {
      "inputs": [],
      "payable": true,
      "stateMutability": "payable",
      "type": "constructor"
    },
    {
      "anonymous": false,
      "inputs": [
        {
          "indexed": false,
          "name": "added_by",
          "type": "address"
        },
        {
          "indexed": false,
          "name": "name",
          "type": "string"
        },
        {
          "indexed": false,
          "name": "rate",
          "type": "uint256"
        },
        {
          "indexed": false,
          "name": "status",
          "type": "uint256"
        }
      ],
      "name": "ProductAdded",
      "type": "event"
    },
    {
      "constant": false,
      "inputs": [
        {
          "name": "_name",
          "type": "string"
        },
        {
          "name": "_fat",
          "type": "uint256"
        },
        {
          "name": "_cal",
          "type": "uint256"
        },
        {
          "name": "_pro",
          "type": "uint256"
        },
        {
          "name": "_carb",
          "type": "uint256"
        },
        {
          "name": "_rate",
          "type": "uint256"
        },
        {
          "name": "_quantity",
          "type": "uint256"
        }
      ],
      "name": "addProduct",
      "outputs": [
        {
          "name": "",
          "type": "bool"
        }
      ],
      "payable": false,
      "stateMutability": "nonpayable",
      "type": "function"
    },
    {
      "constant": true,
      "inputs": [
        {
          "name": "x",
          "type": "uint256"
        }
      ],
      "name": "getQuantity",
      "outputs": [
        {
          "name": "",
          "type": "uint256"
        }
      ],
      "payable": false,
      "stateMutability": "view",
      "type": "function"
    },
    {
      "constant": true,
      "inputs": [
        {
          "name": "x",
          "type": "uint256"
        }
      ],
      "name": "getAdded_by",
      "outputs": [
        {
          "name": "",
          "type": "address"
        }
      ],
      "payable": false,
      "stateMutability": "view",
      "type": "function"
    },
    {
      "constant": false,
      "inputs": [
        {
          "name": "x",
          "type": "uint256"
        },
        {
          "name": "q",
          "type": "uint256"
        }
      ],
      "name": "decreaseQuantity",
      "outputs": [],
      "payable": false,
      "stateMutability": "nonpayable",
      "type": "function"
    },
    {
      "constant": true,
      "inputs": [],
      "name": "getProductsCount",
      "outputs": [
        {
          "name": "",
          "type": "uint256"
        }
      ],
      "payable": false,
      "stateMutability": "view",
      "type": "function"
    }
  ],
  "bytecode": "0x60806040526000600155610926806100186000396000f3fe608060405234801561001057600080fd5b50600436106100625760003560e01c80634a1cfdef146100675780635786fd401461009f5780635ebd9ded146100bd578063720aa404146100ff578063805dd9e91461020e578063d870664614610320575b600080fd5b61009d6004803603604081101561007d57600080fd5b81019080803590602001909291908035906020019092919050505061038e565b005b6100a76103b5565b6040518082815260200191505060405180910390f35b6100e9600480360360208110156100d357600080fd5b81019080803590602001909291905050506103bf565b6040518082815260200191505060405180910390f35b6101f4600480360360e081101561011557600080fd5b810190808035906020019064010000000081111561013257600080fd5b82018360208201111561014457600080fd5b8035906020019184600183028401116401000000008311171561016657600080fd5b91908080601f016020809104026020016040519081016040528093929190818152602001838380828437600081840152601f19601f8201169050808301925050505050505091929192908035906020019092919080359060200190929190803590602001909291908035906020019092919080359060200190929190803590602001909291905050506103de565b604051808215151515815260200191505060405180910390f35b61023a6004803603602081101561022457600080fd5b810190808035906020019092919050505061070a565b604051808b73ffffffffffffffffffffffffffffffffffffffff1673ffffffffffffffffffffffffffffffffffffffff1681526020018a81526020018060200189815260200188815260200187815260200186815260200185815260200184815260200183815260200182810382528a818151815260200191508051906020019080838360005b838110156102dc5780820151818401526020810190506102c1565b50505050905090810190601f1680156103095780820380516001836020036101000a031916815260200191505b509b50505050505050505050505060405180910390f35b61034c6004803603602081101561033657600080fd5b8101908080359060200190929190505050610816565b604051808273ffffffffffffffffffffffffffffffffffffffff1673ffffffffffffffffffffffffffffffffffffffff16815260200191505060405180910390f35b80600080848152602001908152602001600020600801600082825403925050819055505050565b6000600154905090565b6000806000838152602001908152602001600020600801549050919050565b600080871180156103ef5750600086115b80156103fb5750600082115b80156104075750600083115b80156104135750600084115b801561041f5750600085115b610491576040517f08c379a00000000000000000000000000000000000000000000000000000000081526004018080602001828103825260108152602001807f68616e646c696e6720726571756972650000000000000000000000000000000081525060200191505060405180910390fd5b60016000815480929190600101919050555033600080600154815260200190815260200160002060000160006101000a81548173ffffffffffffffffffffffffffffffffffffffff021916908373ffffffffffffffffffffffffffffffffffffffff1602179055506001546000806001548152602001908152602001600020600101819055508760008060015481526020019081526020016000206002019080519060200190610542929190610855565b5086600080600154815260200190815260200160002060030181905550856000806001548152602001908152602001600020600401819055508460008060015481526020019081526020016000206005018190555083600080600154815260200190815260200160002060060181905550826000806001548152602001908152602001600020600701819055506001600080600154815260200190815260200160002060090181905550816000806001548152602001908152602001600020600801819055507f4639628b566767c66d7efac0311b7520c5cb1cbe7895eacda5624a19adc5bdcc338985600080600154815260200190815260200160002060090154604051808573ffffffffffffffffffffffffffffffffffffffff1673ffffffffffffffffffffffffffffffffffffffff16815260200180602001848152602001838152602001828103825285818151815260200191508051906020019080838360005b838110156106c25780820151818401526020810190506106a7565b50505050905090810190601f1680156106ef5780820380516001836020036101000a031916815260200191505b509550505050505060405180910390a1979650505050505050565b60006020528060005260406000206000915090508060000160009054906101000a900473ffffffffffffffffffffffffffffffffffffffff1690806001015490806002018054600181600116156101000203166002900480601f0160208091040260200160405190810160405280929190818152602001828054600181600116156101000203166002900480156107e25780601f106107b7576101008083540402835291602001916107e2565b820191906000526020600020905b8154815290600101906020018083116107c557829003601f168201915b505050505090806003015490806004015490806005015490806006015490806007015490806008015490806009015490508a565b600080600083815260200190815260200160002060000160009054906101000a900473ffffffffffffffffffffffffffffffffffffffff169050919050565b828054600181600116156101000203166002900490600052602060002090601f016020900481019282601f1061089657805160ff19168380011785556108c4565b828001600101855582156108c4579182015b828111156108c35782518255916020019190600101906108a8565b5b5090506108d191906108d5565b5090565b6108f791905b808211156108f35760008160009055506001016108db565b5090565b9056fea165627a7a723058205f57733701fd4cb232bb9543aa3dac2ddd021de3b56321cdbd4aab38755fd99a0029",
  "source": "pragma solidity ^0.5.0;\n\n\ncontract addProducts {\n  constructor() public payable {\n  }\n    struct Product{\n        address payable added_by;\n        uint productId;\n        string ProductName; //product name\n        uint fat;\n        uint calories;\n        uint protein;\n        uint carbohydrate;\n        uint rate;\n        uint quantity;\n        uint status;\n    }\n\n    event ProductAdded(address added_by ,string name,uint rate,uint status);\n    mapping(uint=>Product) public ProductList;\n    uint i=0;\n\n        function addProduct(string memory _name,uint _fat,uint _cal,uint _pro,uint _carb,uint _rate,uint _quantity)  public returns(bool){\n            require(_fat>0 && _cal>0 && _quantity>0 && _rate>0 && _carb>0 && _pro>0, \"handling require\");\n                i++;\n                ProductList[i].added_by = msg.sender;\n                ProductList[i].productId = i;\n                ProductList[i].ProductName = _name;\n                ProductList[i].fat = _fat;\n                ProductList[i].calories = _cal;\n                ProductList[i].protein = _pro;\n                ProductList[i].carbohydrate = _carb;\n                ProductList[i].rate = _rate;\n                ProductList[i].status = 1;\n                ProductList[i].quantity = _quantity;\n                emit ProductAdded(msg.sender,_name,_rate, ProductList[i].status);\n        }\n    function getQuantity(uint x) public view returns(uint){\n        return ProductList[x].quantity;\n    }\n    function getAdded_by(uint x) public view returns(address payable){\n        return ProductList[x].added_by;\n    }\n    function decreaseQuantity(uint x,uint q) public {\n        ProductList[x].quantity -= q;\n    }\n    function getProductsCount() public view returns(uint) {\n        return i;\n    }\n}\n",
  "sourcePath": "C:\\Users\\Dhwani\\Desktop\\project\\scm\\contracts\\addProducts.sol",
  "compiler": {
    "name": "solc",
    "version": "0.5.8+commit.23d335f2.Emscripten.clang"
  },
  "schemaVersion": "3.0.11",
  "updatedAt": "2019-07-04T08:32:34.770Z",
  "devdoc": {
    "methods": {}
  },
  "userdoc": {
    "methods": {}
  }
}