{
  "contractName": "addRawMaterials",
  "abi": [
    {
      "constant": true,
      "inputs": [
        {
          "name": "",
          "type": "uint256"
        }
      ],
      "name": "itemList",
      "outputs": [
        {
          "name": "added_by",
          "type": "address"
        },
        {
          "name": "itemId",
          "type": "uint256"
        },
        {
          "name": "itemName",
          "type": "string"
        },
        {
          "name": "fat",
          "type": "uint256"
        },
        {
          "name": "calories",
          "type": "uint256"
        },
        {
          "name": "protein",
          "type": "uint256"
        },
        {
          "name": "carbohydrate",
          "type": "uint256"
        },
        {
          "name": "rate",
          "type": "uint256"
        },
        {
          "name": "quantity",
          "type": "uint256"
        },
        {
          "name": "status",
          "type": "uint256"
        }
      ],
      "payable": false,
      "stateMutability": "view",
      "type": "function"
    },
    {
      "constant": true,
      "inputs": [],
      "name": "itemsCount",
      "outputs": [
        {
          "name": "",
          "type": "uint256"
        }
      ],
      "payable": false,
      "stateMutability": "view",
      "type": "function"
    },
    {
      "inputs": [],
      "payable": true,
      "stateMutability": "payable",
      "type": "constructor"
    },
    {
      "anonymous": false,
      "inputs": [
        {
          "indexed": false,
          "name": "added_by",
          "type": "address"
        },
        {
          "indexed": false,
          "name": "itemName",
          "type": "string"
        },
        {
          "indexed": false,
          "name": "quantity",
          "type": "uint256"
        },
        {
          "indexed": false,
          "name": "status",
          "type": "uint256"
        }
      ],
      "name": "AddedRawMaterials",
      "type": "event"
    },
    {
      "constant": false,
      "inputs": [
        {
          "name": "_name",
          "type": "string"
        },
        {
          "name": "_fat",
          "type": "uint256"
        },
        {
          "name": "_cal",
          "type": "uint256"
        },
        {
          "name": "_pro",
          "type": "uint256"
        },
        {
          "name": "_carb",
          "type": "uint256"
        },
        {
          "name": "_rate",
          "type": "uint256"
        },
        {
          "name": "_quantity",
          "type": "uint256"
        }
      ],
      "name": "addEntry",
      "outputs": [],
      "payable": false,
      "stateMutability": "nonpayable",
      "type": "function"
    },
    {
      "constant": true,
      "inputs": [
        {
          "name": "x",
          "type": "uint256"
        }
      ],
      "name": "getQuantity",
      "outputs": [
        {
          "name": "",
          "type": "uint256"
        }
      ],
      "payable": false,
      "stateMutability": "view",
      "type": "function"
    },
    {
      "constant": true,
      "inputs": [
        {
          "name": "x",
          "type": "uint256"
        }
      ],
      "name": "getAdded_by",
      "outputs": [
        {
          "name": "",
          "type": "address"
        }
      ],
      "payable": false,
      "stateMutability": "view",
      "type": "function"
    },
    {
      "constant": false,
      "inputs": [
        {
          "name": "x",
          "type": "uint256"
        },
        {
          "name": "q",
          "type": "uint256"
        }
      ],
      "name": "decreaseQuantity",
      "outputs": [],
      "payable": false,
      "stateMutability": "nonpayable",
      "type": "function"
    },
    {
      "constant": true,
      "inputs": [],
      "name": "getItemsCount",
      "outputs": [
        {
          "name": "",
          "type": "uint256"
        }
      ],
      "payable": false,
      "stateMutability": "view",
      "type": "function"
    },
    {
      "constant": true,
      "inputs": [
        {
          "name": "x",
          "type": "uint256"
        }
      ],
      "name": "getItemName",
      "outputs": [
        {
          "name": "",
          "type": "string"
        }
      ],
      "payable": false,
      "stateMutability": "view",
      "type": "function"
    },
    {
      "constant": true,
      "inputs": [
        {
          "name": "x",
          "type": "uint256"
        }
      ],
      "name": "getPrice",
      "outputs": [
        {
          "name": "",
          "type": "uint256"
        }
      ],
      "payable": false,
      "stateMutability": "view",
      "type": "function"
    }
  ],
  "bytecode": "0x6080604052600060015560006002556000600355610b3f806100226000396000f3fe608060405234801561001057600080fd5b50600436106100935760003560e01c80635ebd9ded116100665780635ebd9ded146102f7578063d870664614610339578063d9561a91146103a7578063e2c03ace1461044e578063e75722301461046c57610093565b806302998de5146100985780633d4d36001461018f5780634a1cfdef146102a1578063512dd020146102d9575b600080fd5b61018d600480360360e08110156100ae57600080fd5b81019080803590602001906401000000008111156100cb57600080fd5b8201836020820111156100dd57600080fd5b803590602001918460018302840111640100000000831117156100ff57600080fd5b91908080601f016020809104026020016040519081016040528093929190818152602001838380828437600081840152601f19601f8201169050808301925050505050505091929192908035906020019092919080359060200190929190803590602001909291908035906020019092919080359060200190929190803590602001909291905050506104ae565b005b6101bb600480360360208110156101a557600080fd5b81019080803590602001909291905050506107f7565b604051808b73ffffffffffffffffffffffffffffffffffffffff1673ffffffffffffffffffffffffffffffffffffffff1681526020018a81526020018060200189815260200188815260200187815260200186815260200185815260200184815260200183815260200182810382528a818151815260200191508051906020019080838360005b8381101561025d578082015181840152602081019050610242565b50505050905090810190601f16801561028a5780820380516001836020036101000a031916815260200191505b509b50505050505050505050505060405180910390f35b6102d7600480360360408110156102b757600080fd5b810190808035906020019092919080359060200190929190505050610903565b005b6102e161092a565b6040518082815260200191505060405180910390f35b6103236004803603602081101561030d57600080fd5b8101908080359060200190929190505050610934565b6040518082815260200191505060405180910390f35b6103656004803603602081101561034f57600080fd5b8101908080359060200190929190505050610953565b604051808273ffffffffffffffffffffffffffffffffffffffff1673ffffffffffffffffffffffffffffffffffffffff16815260200191505060405180910390f35b6103d3600480360360208110156103bd57600080fd5b8101908080359060200190929190505050610992565b6040518080602001828103825283818151815260200191508051906020019080838360005b838110156104135780820151818401526020810190506103f8565b50505050905090810190601f1680156104405780820380516001836020036101000a031916815260200191505b509250505060405180910390f35b610456610a49565b6040518082815260200191505060405180910390f35b6104986004803603602081101561048257600080fd5b8101908080359060200190929190505050610a4f565b6040518082815260200191505060405180910390f35b60008751141580156104c05750600086115b80156104cc5750600085115b80156104d85750600081115b80156104e45750600082115b80156104f05750600083115b80156104fc5750600084115b61056e576040517f08c379a00000000000000000000000000000000000000000000000000000000081526004018080602001828103825260108152602001807f68616e646c696e6720726571756972650000000000000000000000000000000081525060200191505060405180910390fd5b60026000815480929190600101919050555033600080600254815260200190815260200160002060000160006101000a81548173ffffffffffffffffffffffffffffffffffffffff021916908373ffffffffffffffffffffffffffffffffffffffff160217905550600254600080600254815260200190815260200160002060010181905550866000806002548152602001908152602001600020600201908051906020019061061f929190610a6e565b5085600080600254815260200190815260200160002060030181905550846000806002548152602001908152602001600020600401819055508360008060025481526020019081526020016000206005018190555082600080600254815260200190815260200160002060060181905550816000806002548152602001908152602001600020600701819055506001600080600254815260200190815260200160002060090181905550806000806002548152602001908152602001600020600801819055507f20ce69ffe4161d39e20f5165c240c81b255b4675862bea5c04a02ace96f6f884338883600080600254815260200190815260200160002060090154604051808573ffffffffffffffffffffffffffffffffffffffff1673ffffffffffffffffffffffffffffffffffffffff16815260200180602001848152602001838152602001828103825285818151815260200191508051906020019080838360005b8381101561079f578082015181840152602081019050610784565b50505050905090810190601f1680156107cc5780820380516001836020036101000a031916815260200191505b509550505050505060405180910390a160036000815480929190600101919050555050505050505050565b60006020528060005260406000206000915090508060000160009054906101000a900473ffffffffffffffffffffffffffffffffffffffff1690806001015490806002018054600181600116156101000203166002900480601f0160208091040260200160405190810160405280929190818152602001828054600181600116156101000203166002900480156108cf5780601f106108a4576101008083540402835291602001916108cf565b820191906000526020600020905b8154815290600101906020018083116108b257829003601f168201915b505050505090806003015490806004015490806005015490806006015490806007015490806008015490806009015490508a565b80600080848152602001908152602001600020600801600082825403925050819055505050565b6000600254905090565b6000806000838152602001908152602001600020600801549050919050565b600080600083815260200190815260200160002060000160009054906101000a900473ffffffffffffffffffffffffffffffffffffffff169050919050565b60606000808381526020019081526020016000206002018054600181600116156101000203166002900480601f016020809104026020016040519081016040528092919081815260200182805460018160011615610100020316600290048015610a3d5780601f10610a1257610100808354040283529160200191610a3d565b820191906000526020600020905b815481529060010190602001808311610a2057829003601f168201915b50505050509050919050565b60035481565b6000806000838152602001908152602001600020600701549050919050565b828054600181600116156101000203166002900490600052602060002090601f016020900481019282601f10610aaf57805160ff1916838001178555610add565b82800160010185558215610add579182015b82811115610adc578251825591602001919060010190610ac1565b5b509050610aea9190610aee565b5090565b610b1091905b80821115610b0c576000816000905550600101610af4565b5090565b9056fea165627a7a723058207327a956ced03555b422432883cf807c581d95534f53d41c323555eefddded5f0029",
  "source": "pragma solidity ^0.5.0;\ncontract addRawMaterials{\n    \n    constructor() public payable {\n    }\n    \n    struct Item{\n        address payable added_by;\n        uint itemId ;\n        string itemName;\n        uint fat;\n        uint calories;\n        uint protein;\n        uint carbohydrate;\n        uint rate;\n        uint quantity;\n        uint status;\n    }\n    \n    event AddedRawMaterials(address added_by,string itemName,uint quantity,uint status);\n    mapping(uint=>Item) public itemList; // mapping of all items added \n\n    uint j = 0;\n    uint i=0;\n    uint public itemsCount = 0 ;\n    function addEntry(string memory _name,uint _fat,uint _cal,uint _pro,uint _carb,uint _rate,uint _quantity) public\n    {   require(bytes(_name).length != 0 && _fat>0 && _cal>0 && _quantity>0 && _rate>0 && _carb>0 && _pro>0, \"handling require\");\n        i++;\n        itemList[i].added_by = msg.sender;\n        itemList[i].itemId = i;\n        itemList[i].itemName = _name;\n        itemList[i].fat = _fat;\n        itemList[i].calories = _cal;\n        itemList[i].protein = _pro;\n        itemList[i].carbohydrate = _carb;\n        itemList[i].rate = _rate;\n        itemList[i].status = 1;\n        itemList[i].quantity = _quantity;\n        emit AddedRawMaterials(msg.sender, _name,_quantity,itemList[i].status);\n        itemsCount++;\n    }\n    \n    function getQuantity(uint x) external view returns(uint){\n        return itemList[x].quantity;\n    }\n    \n    function getAdded_by(uint x) external view returns(address payable){\n        return itemList[x].added_by;\n    }\n    \n    function decreaseQuantity(uint x,uint q) external{\n        itemList[x].quantity -= q;\n    }\n   \n    function getItemsCount() public view returns(uint){\n        return i;\n    }\n\n    function getItemName(uint x) public view returns (string memory){\n        return itemList[x].itemName;\n    }\n\n    function getPrice(uint x) public view returns(uint){\n        return itemList[x].rate;\n    }\n}",
  "sourcePath": "C:\\Users\\Dhwani\\Desktop\\project\\scm\\contracts\\addRawMaterials.sol",
  "compiler": {
    "name": "solc",
    "version": "0.5.8+commit.23d335f2.Emscripten.clang"
  },
  "schemaVersion": "3.0.11",
  "updatedAt": "2019-07-04T08:32:34.778Z",
  "devdoc": {
    "methods": {}
  },
  "userdoc": {
    "methods": {}
  }
}