{
  "contractName": "FeedbackFarmer",
  "abi": [
    {
      "constant": true,
      "inputs": [
        {
          "name": "",
          "type": "uint256"
        }
      ],
      "name": "feedbackList",
      "outputs": [
        {
          "name": "orderId",
          "type": "uint256"
        },
        {
          "name": "fromUser",
          "type": "address"
        },
        {
          "name": "toUser",
          "type": "address"
        },
        {
          "name": "body",
          "type": "string"
        }
      ],
      "payable": false,
      "stateMutability": "view",
      "type": "function"
    },
    {
      "inputs": [],
      "payable": true,
      "stateMutability": "payable",
      "type": "constructor"
    },
    {
      "constant": false,
      "inputs": [
        {
          "name": "_or",
          "type": "address"
        }
      ],
      "name": "giveInstance",
      "outputs": [],
      "payable": false,
      "stateMutability": "nonpayable",
      "type": "function"
    },
    {
      "constant": false,
      "inputs": [
        {
          "name": "_orderId",
          "type": "uint256"
        },
        {
          "name": "_body",
          "type": "string"
        }
      ],
      "name": "giveFeedback",
      "outputs": [
        {
          "name": "",
          "type": "string"
        }
      ],
      "payable": false,
      "stateMutability": "nonpayable",
      "type": "function"
    }
  ],
  "bytecode": "0x60806040526000600255610847806100186000396000f3fe608060405234801561001057600080fd5b50600436106100415760003560e01c80635d837247146100465780637ff415b21461015a578063eca5226c1461019e575b600080fd5b6100726004803603602081101561005c57600080fd5b81019080803590602001909291905050506102dc565b604051808581526020018473ffffffffffffffffffffffffffffffffffffffff1673ffffffffffffffffffffffffffffffffffffffff1681526020018373ffffffffffffffffffffffffffffffffffffffff1673ffffffffffffffffffffffffffffffffffffffff16815260200180602001828103825283818151815260200191508051906020019080838360005b8381101561011c578082015181840152602081019050610101565b50505050905090810190601f1680156101495780820380516001836020036101000a031916815260200191505b509550505050505060405180910390f35b61019c6004803603602081101561017057600080fd5b81019080803573ffffffffffffffffffffffffffffffffffffffff1690602001909291905050506103e4565b005b610261600480360360408110156101b457600080fd5b8101908080359060200190929190803590602001906401000000008111156101db57600080fd5b8201836020820111156101ed57600080fd5b8035906020019184600183028401116401000000008311171561020f57600080fd5b91908080601f016020809104026020016040519081016040528093929190818152602001838380828437600081840152601f19601f820116905080830192505050505050509192919290505050610427565b6040518080602001828103825283818151815260200191508051906020019080838360005b838110156102a1578082015181840152602081019050610286565b50505050905090810190601f1680156102ce5780820380516001836020036101000a031916815260200191505b509250505060405180910390f35b60016020528060005260406000206000915090508060000154908060010160009054906101000a900473ffffffffffffffffffffffffffffffffffffffff16908060020160009054906101000a900473ffffffffffffffffffffffffffffffffffffffff1690806003018054600181600116156101000203166002900480601f0160208091040260200160405190810160405280929190818152602001828054600181600116156101000203166002900480156103da5780601f106103af576101008083540402835291602001916103da565b820191906000526020600020905b8154815290600101906020018083116103bd57829003601f168201915b5050505050905084565b806000806101000a81548173ffffffffffffffffffffffffffffffffffffffff021916908373ffffffffffffffffffffffffffffffffffffffff16021790555050565b60606000809054906101000a900473ffffffffffffffffffffffffffffffffffffffff1673ffffffffffffffffffffffffffffffffffffffff1663b5b3b0516040518163ffffffff1660e01b815260040160206040518083038186803b15801561049057600080fd5b505afa1580156104a4573d6000803e3d6000fd5b505050506040513d60208110156104ba57600080fd5b810190808051906020019092919050505083111580156105b157506000809054906101000a900473ffffffffffffffffffffffffffffffffffffffff1673ffffffffffffffffffffffffffffffffffffffff1663ccd2712d846040518263ffffffff1660e01b81526004018082815260200191505060206040518083038186803b15801561054757600080fd5b505afa15801561055b573d6000803e3d6000fd5b505050506040513d602081101561057157600080fd5b810190808051906020019092919050505073ffffffffffffffffffffffffffffffffffffffff163373ffffffffffffffffffffffffffffffffffffffff16145b6105ba57600080fd5b6002600081548092919060010191905055503360016000600254815260200190815260200160002060010160006101000a81548173ffffffffffffffffffffffffffffffffffffffff021916908373ffffffffffffffffffffffffffffffffffffffff16021790555081600160006002548152602001908152602001600020600301908051906020019061064f929190610776565b506000809054906101000a900473ffffffffffffffffffffffffffffffffffffffff1673ffffffffffffffffffffffffffffffffffffffff1663eebe8c64846040518263ffffffff1660e01b81526004018082815260200191505060206040518083038186803b1580156106c257600080fd5b505afa1580156106d6573d6000803e3d6000fd5b505050506040513d60208110156106ec57600080fd5b810190808051906020019092919050505060016000600254815260200190815260200160002060020160006101000a81548173ffffffffffffffffffffffffffffffffffffffff021916908373ffffffffffffffffffffffffffffffffffffffff160217905550826001600060025481526020019081526020016000206000018190555092915050565b828054600181600116156101000203166002900490600052602060002090601f016020900481019282601f106107b757805160ff19168380011785556107e5565b828001600101855582156107e5579182015b828111156107e45782518255916020019190600101906107c9565b5b5090506107f291906107f6565b5090565b61081891905b808211156108145760008160009055506001016107fc565b5090565b9056fea165627a7a72305820c27a9a7aef2fa5a3c308e0c84a21b03420f1216d7306a47d044dbbf4c0cd03970029",
  "source": "pragma solidity ^0.5.0;\nimport \"./orderRawMaterials.sol\";\ncontract FeedbackFarmer {\n    \n    orderRawMaterials or ;\n    \n    constructor() public payable {}\n    \n     function giveInstance(address _or) public{\n        or = orderRawMaterials(_or);\n    }\n    struct feedback {\n        uint orderId;\n        address fromUser;\n        address toUser;\n        string body ;\n    }\n    \n    //mapping of every feedback that has been recorded\n    mapping (uint=>feedback) public feedbackList ;\n    uint j =0;\n    \n    function giveFeedback(uint _orderId ,string memory _body)public returns(string memory){\n        require(_orderId <= or.getOrdersCount() && msg.sender == or.getOrdered_by(_orderId));\n        j++;\n        feedbackList[j].fromUser = msg.sender ;\n        feedbackList[j].body = _body ;\n        feedbackList[j].toUser = or.getFulfilled_by(_orderId) ;\n        feedbackList[j].orderId = _orderId;\n    }\n}",
  "sourcePath": "C:/Users/Dhwani/Desktop/project/scm/contracts/FeedbackFarmer.sol",
  "compiler": {
    "name": "solc",
    "version": "0.5.8+commit.23d335f2.Emscripten.clang"
  },
  "schemaVersion": "3.0.11",
  "updatedAt": "2019-07-04T08:32:34.811Z",
  "devdoc": {
    "methods": {}
  },
  "userdoc": {
    "methods": {}
  }
}