{
  "contractName": "orderDairyProducts",
  "abi": [
    {
      "constant": true,
      "inputs": [],
      "name": "ordersCount",
      "outputs": [
        {
          "name": "",
          "type": "uint256"
        }
      ],
      "payable": false,
      "stateMutability": "view",
      "type": "function"
    },
    {
      "constant": true,
      "inputs": [
        {
          "name": "",
          "type": "uint256"
        }
      ],
      "name": "orders",
      "outputs": [
        {
          "name": "ordered_by",
          "type": "address"
        },
        {
          "name": "orderId",
          "type": "uint256"
        },
        {
          "name": "productId",
          "type": "uint256"
        },
        {
          "name": "quantityOrdered",
          "type": "uint256"
        },
        {
          "name": "fulfilled_by",
          "type": "address"
        }
      ],
      "payable": false,
      "stateMutability": "view",
      "type": "function"
    },
    {
      "inputs": [],
      "payable": true,
      "stateMutability": "payable",
      "type": "constructor"
    },
    {
      "anonymous": false,
      "inputs": [
        {
          "indexed": false,
          "name": "",
          "type": "uint256"
        },
        {
          "indexed": false,
          "name": "",
          "type": "string"
        },
        {
          "indexed": false,
          "name": "",
          "type": "uint256"
        },
        {
          "indexed": false,
          "name": "",
          "type": "uint256"
        }
      ],
      "name": "RecieptPrint",
      "type": "event"
    },
    {
      "constant": false,
      "inputs": [
        {
          "name": "_ap",
          "type": "address"
        }
      ],
      "name": "giveInstance",
      "outputs": [],
      "payable": false,
      "stateMutability": "nonpayable",
      "type": "function"
    },
    {
      "constant": false,
      "inputs": [
        {
          "name": "_productId",
          "type": "uint256"
        },
        {
          "name": "_quantityOrdered",
          "type": "uint256"
        }
      ],
      "name": "createOrder",
      "outputs": [],
      "payable": false,
      "stateMutability": "nonpayable",
      "type": "function"
    },
    {
      "constant": true,
      "inputs": [
        {
          "name": "x",
          "type": "uint256"
        }
      ],
      "name": "getOrdered_by",
      "outputs": [
        {
          "name": "",
          "type": "address"
        }
      ],
      "payable": false,
      "stateMutability": "view",
      "type": "function"
    },
    {
      "constant": true,
      "inputs": [
        {
          "name": "x",
          "type": "uint256"
        }
      ],
      "name": "getFulfilled_by",
      "outputs": [
        {
          "name": "",
          "type": "address"
        }
      ],
      "payable": false,
      "stateMutability": "view",
      "type": "function"
    },
    {
      "constant": true,
      "inputs": [],
      "name": "getOrdersCount",
      "outputs": [
        {
          "name": "",
          "type": "uint256"
        }
      ],
      "payable": false,
      "stateMutability": "view",
      "type": "function"
    }
  ],
  "bytecode": "0x60806040526000600155600060035560006004556107d2806100226000396000f3fe608060405234801561001057600080fd5b506004361061007d5760003560e01c8063a85c38ef1161005b578063a85c38ef1461011c578063b5b3b051146101d2578063ccd2712d146101f0578063eebe8c641461025e5761007d565b806335daa7311461008257806379109baa146100a05780637ff415b2146100d8575b600080fd5b61008a6102cc565b6040518082815260200191505060405180910390f35b6100d6600480360360408110156100b657600080fd5b8101908080359060200190929190803590602001909291905050506102d2565b005b61011a600480360360208110156100ee57600080fd5b81019080803573ffffffffffffffffffffffffffffffffffffffff169060200190929190505050610663565b005b6101486004803603602081101561013257600080fd5b81019080803590602001909291905050506106a6565b604051808673ffffffffffffffffffffffffffffffffffffffff1673ffffffffffffffffffffffffffffffffffffffff1681526020018581526020018481526020018381526020018273ffffffffffffffffffffffffffffffffffffffff1673ffffffffffffffffffffffffffffffffffffffff1681526020019550505050505060405180910390f35b6101da61071c565b6040518082815260200191505060405180910390f35b61021c6004803603602081101561020657600080fd5b8101908080359060200190929190505050610726565b604051808273ffffffffffffffffffffffffffffffffffffffff1673ffffffffffffffffffffffffffffffffffffffff16815260200191505060405180910390f35b61028a6004803603602081101561027457600080fd5b8101908080359060200190929190505050610766565b604051808273ffffffffffffffffffffffffffffffffffffffff1673ffffffffffffffffffffffffffffffffffffffff16815260200191505060405180910390f35b60035481565b6000809054906101000a900473ffffffffffffffffffffffffffffffffffffffff1673ffffffffffffffffffffffffffffffffffffffff16635ebd9ded836040518263ffffffff1660e01b81526004018082815260200191505060206040518083038186803b15801561034457600080fd5b505afa158015610358573d6000803e3d6000fd5b505050506040513d602081101561036e57600080fd5b81019080805190602001909291905050508111156103f4576040517f08c379a00000000000000000000000000000000000000000000000000000000081526004018080602001828103825260108152602001807f68616e646c696e6720726571756972650000000000000000000000000000000081525060200191505060405180910390fd5b6001600081548092919060010191905055503360026000600154815260200190815260200160002060000160006101000a81548173ffffffffffffffffffffffffffffffffffffffff021916908373ffffffffffffffffffffffffffffffffffffffff16021790555060015460026000600154815260200190815260200160002060010181905550816002600060015481526020019081526020016000206002018190555080600260006001548152602001908152602001600020600301819055506000809054906101000a900473ffffffffffffffffffffffffffffffffffffffff1673ffffffffffffffffffffffffffffffffffffffff1663d8706646836040518263ffffffff1660e01b81526004018082815260200191505060206040518083038186803b15801561052857600080fd5b505afa15801561053c573d6000803e3d6000fd5b505050506040513d602081101561055257600080fd5b810190808051906020019092919050505060026000600154815260200190815260200160002060040160006101000a81548173ffffffffffffffffffffffffffffffffffffffff021916908373ffffffffffffffffffffffffffffffffffffffff1602179055506000809054906101000a900473ffffffffffffffffffffffffffffffffffffffff1673ffffffffffffffffffffffffffffffffffffffff16634a1cfdef83836040518363ffffffff1660e01b81526004018083815260200182815260200192505050600060405180830381600087803b15801561063557600080fd5b505af1158015610649573d6000803e3d6000fd5b505050506003600081548092919060010191905055505050565b806000806101000a81548173ffffffffffffffffffffffffffffffffffffffff021916908373ffffffffffffffffffffffffffffffffffffffff16021790555050565b60026020528060005260406000206000915090508060000160009054906101000a900473ffffffffffffffffffffffffffffffffffffffff16908060010154908060020154908060030154908060040160009054906101000a900473ffffffffffffffffffffffffffffffffffffffff16905085565b6000600354905090565b60006002600083815260200190815260200160002060000160009054906101000a900473ffffffffffffffffffffffffffffffffffffffff169050919050565b60006002600083815260200190815260200160002060040160009054906101000a900473ffffffffffffffffffffffffffffffffffffffff16905091905056fea165627a7a7230582058d1d46034e5f927ba0c2739e58b1314311663911369bdcd0f144e281365e8f80029",
  "source": "pragma solidity ^0.5.0;\nimport \"./addProducts.sol\";\n\ncontract orderDairyProducts {\n  constructor() public payable{\n  }\n\n  addProducts ap ;\n    \n    function giveInstance(address _ap) public{\n        ap = addProducts(_ap);\n    }\n    \n    event RecieptPrint(uint,string,uint,uint);\n    \n    uint j=0; // used to give order ids\n    struct Order{\n        address payable ordered_by ;\n        uint orderId;\n        uint productId;\n        uint quantityOrdered;\n        address payable fulfilled_by ;\n    }\n        \n    mapping(uint =>Order) public orders;\n    uint public ordersCount = 0;\n    uint i=0;\n  \n    function createOrder(uint _productId,uint _quantityOrdered) public {\n        require(_quantityOrdered <= ap.getQuantity(_productId), \"handling require\");\n        j++;\n        orders[j].ordered_by = msg.sender;\n        orders[j].orderId = j;\n        orders[j].productId = _productId;\n        orders[j].quantityOrdered = _quantityOrdered;\n        orders[j].fulfilled_by = ap.getAdded_by(_productId);\n        ap.decreaseQuantity(_productId, _quantityOrdered) ;\n        ordersCount++;\n    }\n    \n    function getOrdered_by(uint x) public view returns(address payable){\n        return orders[x].ordered_by;\n    }\n    \n    function getFulfilled_by(uint x) public view returns(address payable){\n        return orders[x].fulfilled_by;\n    }\n    \n    function getOrdersCount() public view returns(uint){\n        return ordersCount;\n    }\n}\n",
  "sourcePath": "C:\\Users\\Dhwani\\Desktop\\project\\scm\\contracts\\orderDairyProducts.sol",
  "compiler": {
    "name": "solc",
    "version": "0.5.8+commit.23d335f2.Emscripten.clang"
  },
  "schemaVersion": "3.0.11",
  "updatedAt": "2019-07-04T08:32:34.798Z",
  "devdoc": {
    "methods": {}
  },
  "userdoc": {
    "methods": {}
  }
}