{
  "contractName": "Warehouse",
  "abi": [
    {
      "constant": true,
      "inputs": [],
      "name": "warehouseCount",
      "outputs": [
        {
          "name": "",
          "type": "uint256"
        }
      ],
      "payable": false,
      "stateMutability": "view",
      "type": "function"
    },
    {
      "constant": true,
      "inputs": [
        {
          "name": "",
          "type": "uint256"
        }
      ],
      "name": "list",
      "outputs": [
        {
          "name": "warehouse_id",
          "type": "uint256"
        },
        {
          "name": "product_name",
          "type": "string"
        },
        {
          "name": "quantity",
          "type": "uint256"
        },
        {
          "name": "quality",
          "type": "string"
        }
      ],
      "payable": false,
      "stateMutability": "view",
      "type": "function"
    },
    {
      "constant": true,
      "inputs": [
        {
          "name": "",
          "type": "uint256"
        }
      ],
      "name": "warehouses",
      "outputs": [
        {
          "name": "id",
          "type": "uint256"
        },
        {
          "name": "location",
          "type": "string"
        },
        {
          "name": "space",
          "type": "uint256"
        },
        {
          "name": "owner",
          "type": "address"
        }
      ],
      "payable": false,
      "stateMutability": "view",
      "type": "function"
    },
    {
      "inputs": [],
      "payable": false,
      "stateMutability": "nonpayable",
      "type": "constructor"
    },
    {
      "constant": false,
      "inputs": [
        {
          "name": "_location",
          "type": "string"
        },
        {
          "name": "_space",
          "type": "uint256"
        }
      ],
      "name": "createWarehouse",
      "outputs": [],
      "payable": false,
      "stateMutability": "nonpayable",
      "type": "function"
    },
    {
      "constant": false,
      "inputs": [
        {
          "name": "_id",
          "type": "uint256"
        },
        {
          "name": "_product_name",
          "type": "string"
        },
        {
          "name": "_quantity",
          "type": "uint256"
        },
        {
          "name": "_quality",
          "type": "string"
        }
      ],
      "name": "add",
      "outputs": [
        {
          "name": "",
          "type": "bool"
        }
      ],
      "payable": false,
      "stateMutability": "nonpayable",
      "type": "function"
    }
  ],
  "bytecode": "0x60806040526000600155600060045534801561001a57600080fd5b506109f18061002a6000396000f3fe608060405234801561001057600080fd5b50600436106100575760003560e01c8063177a35fd1461005c5780636fe47b861461012157806380c9419e1461013f57806383c30fa014610260578063da54a0a514610348575b600080fd5b61011f6004803603604081101561007257600080fd5b810190808035906020019064010000000081111561008f57600080fd5b8201836020820111156100a157600080fd5b803590602001918460018302840111640100000000831117156100c357600080fd5b91908080601f016020809104026020016040519081016040528093929190818152602001838380828437600081840152601f19601f820116905080830192505050505050509192919290803590602001909291905050506104c6565b005b6101296105aa565b6040518082815260200191505060405180910390f35b61016b6004803603602081101561015557600080fd5b81019080803590602001909291905050506105b0565b604051808581526020018060200184815260200180602001838103835286818151815260200191508051906020019080838360005b838110156101bb5780820151818401526020810190506101a0565b50505050905090810190601f1680156101e85780820380516001836020036101000a031916815260200191505b50838103825284818151815260200191508051906020019080838360005b83811015610221578082015181840152602081019050610206565b50505050905090810190601f16801561024e5780820380516001836020036101000a031916815260200191505b50965050505050505060405180910390f35b61028c6004803603602081101561027657600080fd5b8101908080359060200190929190505050610710565b60405180858152602001806020018481526020018373ffffffffffffffffffffffffffffffffffffffff1673ffffffffffffffffffffffffffffffffffffffff168152602001828103825285818151815260200191508051906020019080838360005b8381101561030a5780820151818401526020810190506102ef565b50505050905090810190601f1680156103375780820380516001836020036101000a031916815260200191505b509550505050505060405180910390f35b6104ac6004803603608081101561035e57600080fd5b81019080803590602001909291908035906020019064010000000081111561038557600080fd5b82018360208201111561039757600080fd5b803590602001918460018302840111640100000000831117156103b957600080fd5b91908080601f016020809104026020016040519081016040528093929190818152602001838380828437600081840152601f19601f820116905080830192505050505050509192919290803590602001909291908035906020019064010000000081111561042657600080fd5b82018360208201111561043857600080fd5b8035906020019184600183028401116401000000008311171561045a57600080fd5b91908080601f016020809104026020016040519081016040528093929190818152602001838380828437600081840152601f19601f8201169050808301925050505050505091929192905050506107f8565b604051808215151515815260200191505060405180910390f35b6002600081548092919060010191905055506002546000806002548152602001908152602001600020600001819055508160008060025481526020019081526020016000206001019080519060200190610521929190610920565b508060008060025481526020019081526020016000206002018190555033600080600254815260200190815260200160002060030160006101000a81548173ffffffffffffffffffffffffffffffffffffffff021916908373ffffffffffffffffffffffffffffffffffffffff1602179055506001600081548092919060010191905055505050565b60015481565b6003602052806000526040600020600091509050806000015490806001018054600181600116156101000203166002900480601f0160208091040260200160405190810160405280929190818152602001828054600181600116156101000203166002900480156106625780601f1061063757610100808354040283529160200191610662565b820191906000526020600020905b81548152906001019060200180831161064557829003601f168201915b505050505090806002015490806003018054600181600116156101000203166002900480601f0160208091040260200160405190810160405280929190818152602001828054600181600116156101000203166002900480156107065780601f106106db57610100808354040283529160200191610706565b820191906000526020600020905b8154815290600101906020018083116106e957829003601f168201915b5050505050905084565b6000602052806000526040600020600091509050806000015490806001018054600181600116156101000203166002900480601f0160208091040260200160405190810160405280929190818152602001828054600181600116156101000203166002900480156107c25780601f10610797576101008083540402835291602001916107c2565b820191906000526020600020905b8154815290600101906020018083116107a557829003601f168201915b5050505050908060020154908060030160009054906101000a900473ffffffffffffffffffffffffffffffffffffffff16905084565b6000600154851115610872576040517f08c379a000000000000000000000000000000000000000000000000000000000815260040180806020018281038252600f8152602001807f68616e646c696e6420726575697265000000000000000000000000000000000081525060200191505060405180910390fd5b60046000815480929190600101919050555084600360006004548152602001908152602001600020600001819055508360036000600454815260200190815260200160002060010190805190602001906108cd929190610920565b508260036000600454815260200190815260200160002060020181905550816003600060045481526020019081526020016000206003019080519060200190610917929190610920565b50949350505050565b828054600181600116156101000203166002900490600052602060002090601f016020900481019282601f1061096157805160ff191683800117855561098f565b8280016001018555821561098f579182015b8281111561098e578251825591602001919060010190610973565b5b50905061099c91906109a0565b5090565b6109c291905b808211156109be5760008160009055506001016109a6565b5090565b9056fea165627a7a72305820e0e95d646c430723e3cab302a11c045c7fb4a9b9d343ab0993b0d0fd7d8341190029",
  "source": "pragma solidity ^0.5.0;\n\n\ncontract Warehouse {\n  constructor() public {\n  }\n\n   struct warehouse{\n        uint id;\n        string location ;\n        uint space ;\n        address owner ;\n    }\n    \n    mapping(uint => warehouse) public warehouses ;\n    uint public warehouseCount = 0;\n    struct productsAdded {\n        uint warehouse_id ;\n        string product_name ;\n        uint quantity ;\n        string quality ;\n    }\n    \n    uint nextId ;\n    mapping(uint => productsAdded) public list ;\n    function createWarehouse(string memory _location,uint _space) public {\n        nextId++;\n        warehouses[nextId].id = nextId;\n        warehouses[nextId].location = _location;\n        warehouses[nextId].space = _space;\n        warehouses[nextId].owner = msg.sender;\n        warehouseCount++;\n    }\n    \n    uint j = 0 ;\n    \n    function add(uint _id,string memory _product_name,uint _quantity,string memory _quality) public returns(bool){\n        require(_id <= warehouseCount, \"handlind reuire\");\n        j++;\n        list[j].warehouse_id = _id;\n        list[j].product_name = _product_name;\n        list[j].quantity = _quantity;\n        list[j].quality = _quality;\n    }\n    \n}\n",
  "sourcePath": "C:/Users/Dhwani/Desktop/project/scm/contracts/Warehouse.sol",
  "compiler": {
    "name": "solc",
    "version": "0.5.8+commit.23d335f2.Emscripten.clang"
  },
  "schemaVersion": "3.0.11",
  "updatedAt": "2019-07-04T08:32:34.786Z",
  "devdoc": {
    "methods": {}
  },
  "userdoc": {
    "methods": {}
  }
}